:100000000C943A000C94DD0B0C94DD0B0C94DD0B7E
:100010000C94DD0B0C94DD0B0C94DD0B0C94DD0BC0
:100020000C94DD0B0C94DD0B0C940F0B0C94DD0B7E
:100030000C94DD0B0C94DD0B0C94DD0B0C94DD0BA0
:100040000C94DD0B0C94DD0B0C94DD0B0C94DD0B90
:100050000C94DD0BF8046005EE05F405FA050006C6
:100060000906A9050F06BC06006000700017C8004D
:100070007000738011241FBECFE5D8E0DEBFCDBF76
:10008000E8E6F0E040E017C0B591A59135912591E3
:10009000059107FD0CC095918591EF01F92FE82F8F
:1000A00005900D92A217B307D9F7FE0104C01D9267
:1000B000A217B307E1F7E437F40731F70E9487018D
:0800C0000C949D0BF894FFCF96
:1000C80057656C636F6D6520746F20536D61727432
:1000D80000486F6D652050726F6A656374004C6FDD
:1000E80067696E20666F720066697273742074693E
:1000F8006D65005365742041646D696E207061738D
:10010800730041646D696E20706173733A005061C9
:100118007373205361766564005365742055736565
:100128007220506173730055736572205061737348
:100138003A0053657373696F6E2054696D656F7506
:1001480074004C6F67696E20426C6F636B65640066
:1001580057616974203330205365636F6E64730090
:1001680053656C656374204D6F6465204E6F773AF4
:1001780000303A41646D696E20313A5573657200FA
:100188004572726F7221210057726F6E6720696E17
:100198007075742E2E0041646D696E204D6F646514
:1001A80000456E74657220506173733A0052696736
:1001B800687420706173730041646D696E206D6F9F
:1001C800646500446F6F72206973204F70656E69B3
:1001D8006E670057656C636F6D65204261636B00E5
:1001E80057726F6E6720506173730054726965733C
:1001F800206C6566743A0055736572204D6F6465AE
:100208000055736572206D6F64650057726F6E6775
:10021800207061737300313A526F6F6D3120323A3A
:10022800526F6F6D3200333A526F6F6D3320343A2C
:100238004D6F72652000333A526F6F6D3320343A38
:10024800526F6F6D3400313A526F6F6D3420202039
:1002580020323A545620202000333A416972204314
:100268006F6E642E343A5265740057726F6E672051
:10027800696E70757400313A5365742074656D70D9
:10028800657261747572652000323A436F6E7472DC
:100298006F6C2020303A52455400536574207465C1
:1002A8006D702E3A5F5F200054656D7065726174E1
:0802B8007572652053657400A6
:1002C000526F6F6D313A00526F6F6D323A00526F5C
:1002D0006F6D333A00526F6F6D343A0054563A00E6
:1002E00041697220436F6E643A004F4E004F46469C
:1002F00000312D4F6E20322D4F666620302D524535
:0E030000540057726F6E6720696E707574003E
:10030E00CF93DF93CDB7DEB728970FB6F894DEBF45
:10031E000FBECDBF60E083E40E94D10B61E083E4A9
:10032E000E94D10B62E083E40E94D10B0E94C909A6
:10033E000E94150A0E94BB0B68EC70E080E00E94E0
:10034E00260B61E082E00E94770B69ED70E080E0A1
:10035E000E94260B2FEF39E688E121503040804075
:10036E00E1F700C000000E94CD0B80E091E00E94FA
:10037E00B20B813039F481E091E00E94B20B8130F2
:10038E0009F4E0C066EE70E080E00E94260B61E0AA
:10039E0082E00E94770B60EF70E080E00E94260BF7
:1003AE009FEF29E638E1915020403040E1F700C040
:1003BE0000000E94CD0B6BEF70E080E00E94260BD8
:1003CE0061E082E00E94770B6AE071E080E00E94BB
:1003DE00260B8FEF89838A838B838C8310E02AC050
:1003EE000E94070901C08FEF8F3FD1F3E1E0F0E0EB
:1003FE00EC0FFD1FE10FF11D80830E94910B8FEF1B
:10040E0092E527E0815090402040E1F700C00000C7
:10041E006CE0610F82E00E94770B8AE20E94910BE2
:10042E003FEF80E792E0315080409040E1F700C00E
:10043E0000001F5F1430B8F2CE0101966C0120E867
:10044E00E22E24E030E06E2DA60182E091E00E94C3
:10045E00520A61E080E091E00E94650B0E94CD0B94
:10046E0066E171E080E00E94260B3FEF84E39CE0A2
:10047E00315080409040E1F700C000000E94CD0B4B
:10048E0061E271E080E00E94260B61E082E00E9452
:10049E00770B6FE271E080E00E94260B10E02AC01D
:1004AE000E94070901C08FEF8F3FD1F3E1E0F0E02A
:1004BE00EC0FFD1FE10FF11D80830E94910B2FEFBA
:1004CE0032E587E0215030408040E1F700C0000067
:1004DE006CE0610F82E00E94770B8AE20E94910B22
:1004EE009FEF20E732E0915020403040E1F700C00E
:1004FE0000001F5F1430B8F224E030E06E2DA6012C
:10050E0086E091E00E94520A61E081E091E00E9453
:10051E00650B0E94CD0B66E171E080E00E94260B18
:10052E008FEF94E32CE0815090402040E1F700C023
:10053E0000000E94CD0B60E08AE091E00E94650B06
:10054E00E12C05C08AE091E00E94B20BE82EF12C5E
:10055E0080917200813009F50E94A80B10927100F3
:10056E00109270001092720061E083E40E94D90B29
:10057E0060E083E40E94D90B0E94CD0B6AE371E028
:10058E0080E00E94260B3FEF89E698E131508040D3
:10059E009040E1F700C00000F12CD12C1FEF10C2EB
:1005AE0021E0E2122AC00E94CD0B6AE471E080E0E5
:1005BE000E94260B61E082E00E94770B68E571E0F5
:1005CE0080E00E94260B62E083E40E94D50B3FEF91
:1005DE0089E592E622E03150804090402040D9F7E4
:1005EE0000C0000062E083E40E94D90B60E08AE064
:1005FE0091E00E94650BD12CE12C0E94CD0B68E698
:10060E0071E080E00E94260B61E082E00E94770B91
:10061E0069E771E080E00E94260B03C00E94070983
:10062E00182F1F3FD9F380ED810F8230D8F00E9432
:10063E00CD0B68E871E080E00E94260B61E082E05D
:10064E000E94770B60E971E080E00E94260B3FEF7D
:10065E0089E698E1315080409040E1F700C00000FB
:10066E001FEFAEC18FEF8D838E838F838887898333
:10067E008A838B838C83103309F4E8C0113309F419
:10068E009AC19EC10E94CD0B6EE971E080E00E947E
:10069E00260B61E082E00E94770B69EA71E080E050
:1006AE000E94260B2FEF31EE84E021503040804027
:1006BE00E1F700C0000010E02AC00E94070901C047
:1006CE008FEF8F3FD1F3E5E0F0E0EC0FFD1FE10F70
:1006DE00F11D80830E94910B9FEF22E537E0915030
:1006EE0020403040E1F700C000006CE0610F82E076
:1006FE000E94770B8AE20E94910B8FEF90E722E027
:10070E00815090402040E1F700C000001F5F143080
:10071E00B8F244E050E08E010F5F1F4FB80182E047
:10072E0091E00E94DF0A980140E8BE016B5F7F4FA7
:10073E0080E804E00E94890A813009F058C00E94C6
:10074E00CD0B65EB71E080E00E94260B61E082E04C
:10075E000E94770B60EC71E080E00E94260B3FEF69
:10076E0089E698E1315080409040E1F700C00000EA
:10077E0084B3806184BB84B3806284BB0E94CD0B42
:10078E006BEC71E080E00E94260B61E082E00E943B
:10079E00770B6BED71E080E00E94260B2FEF33EDAF
:1007AE0080E3215030408040E1F700C0000083B369
:1007BE00806183BB83B3806283BB9FEF21E13AE705
:1007CE00915020403040E1F700C0000083B38F7E8F
:1007DE0083BB83B38F7D83BB60E083E40E94D50B24
:1007EE000E943C0B0E94CD0BD12C81E02DC0D394E6
:1007FE000E94CD0B68EE71E080E00E94260B61E056
:10080E0082E00E94770B63EF71E080E00E94260B7E
:10081E0083E38D190E94910B8FEF99E628E18150A9
:10082E0090402040E1F700C000000E94CD0B32E066
:10083E003D1548F461E08AE091E00E94650B1FEFE0
:10084E00EE24E394BDC08F2D1FEF01C08F2D81309C
:10085E0009F018CFF82EB4C00E94CD0B6FEF71E0E7
:10086E0080E00E94260B61E082E00E94770B69EA2D
:10087E0071E080E00E94260B8FEF90E722E081501E
:10088E0090402040E1F700C0000010E02AC00E9416
:10089E00070901C08FEF8F3FD1F3E5E0F0E0EC0FD9
:1008AE00FD1FE10FF11D80830E94910B3FEF82E54A
:1008BE0097E0315080409040E1F700C000006CE0BE
:1008CE00610F82E00E94770B8AE20E94910B2FEF5C
:1008DE0030E782E0215030408040E1F700C0000058
:1008EE001F5F1430B8F244E050E08E010F5F1F4FCF
:1008FE00B80186E091E00E94DF0A980140E8BE014F
:10090E006B5F7F4F80E804E00E94890A813021F5F9
:10091E000E94CD0B65EB71E080E00E94260B61E03A
:10092E0082E00E94770B69E072E080E00E94260B65
:10093E009FEF24E33CE0915020403040E1F700C0AF
:10094E00000061E083E40E94D50B0E943C0B0E94E4
:10095E00CD0BD12C82E02DC0D3940E94CD0B63E140
:10096E0072E080E00E94260B61E082E00E94770B2D
:10097E0063EF71E080E00E94260B83E38D190E94E5
:10098E00910B8FEF99E628E1815090402040E1F7DE
:10099E0000C000000E94CD0B32E03D1548F461E02E
:1009AE008AE091E00E94650B1FEFEE24E39408C0ED
:1009BE008F2D1FEF01C08F2D823009F04DCFF82EF5
:1009CE00FF2009F4EDCD01E0E1C1802F90E0FC01A4
:1009DE003197EA30F10508F0D9C1E65DFF4F0C946E
:1009EE00C20B0E94CD0B6EE172E080E00E94260BDE
:1009FE0061E082E00E94770B81E0F81206C06EE2A1
:100A0E0072E080E00E94260B08C092E0F91205C049
:100A1E006EE372E080E00E94260B8F2D0E94BF0ACB
:100A2E00182F2FEF30E782E0215030408040E1F761
:100A3E0000C00000113351F1123351F1133351F153
:100A4E00143319F492E0F91639F1143319F421E044
:100A5E00F21621F11F3F19F10E94CD0B68E871E0EB
:100A6E0080E00E94260B61E082E00E94770B60E935
:100A7E0071E080E00E94260B3FEF84E39CE0315052
:100A8E0080409040E1F700C0000009C003E007C0BD
:100A9E0004E005C005E003C006E001C002E011530A
:100AAE00143008F473C180917200882309F499CF31
:100ABE006DC10E94CD0B6EE472E080E00E94260BA9
:100ACE0061E082E00E94770B61E672E080E00E94B6
:100ADE00260B8F2D0E94BF0A182F2FEF30E782E0D2
:100AEE00215030408040E1F700C000001133C9F0C2
:100AFE001233C9F01333C9F01433C9F01F3FC1F0DC
:100B0E000E94CD0B62E772E080E00E94260B9FEF01
:100B1E0024E33CE0915020403040E1F700C000005B
:100B2E0007C006E005C007E003C008E001C001E011
:100B3E001153143008F42AC180917200882309F4ED
:100B4E00B8CF24C10E94CD0B6EE772E080E00E9408
:100B5E00260B61E082E00E94770B61E972E080E093
:100B6E000E94260B8F2D0E94BF0A182F8FEF90E741
:100B7E0022E0815090402040E1F700C00000113388
:100B8E00B9F01233B9F01033B9F01F3FB1F00E9433
:100B9E00CD0B62E772E080E00E94260B3FEF84E30C
:100BAE009CE0315080409040E1F700C0000005C04D
:100BBE000AE003C009E001C002E01053133008F44C
:100BCE00E5C080917200882309F4BCCFDFC06F2D81
:100BDE0083E00E94D30601E0D9C06F2D84E00E940D
:100BEE00D30601E0D3C06F2D85E00E94D30601E04D
:100BFE00CDC06F2D86E00E94D30622E0F212BFC058
:100C0E0001E0C4C06F2D87E00E94D30602E0BEC093
:100C1E006F2D89E00E94D30608E0B8C00E94CD0B6C
:100C2E0062EA72E080E00E94260B8FED0E94910B2B
:100C3E0083E40E94910B6BE081E00E94770B3FEF03
:100C4E0081EE94E0315080409040E1F700C000000A
:100C5E008F2D0E94BF0A2FE73AE196E021503040D7
:100C6E009040E1F700C0000090917200913009F4BD
:100C7E0088C010ED180F1A30D0F00E94CD0B68E826
:100C8E0071E080E00E94260B61E082E00E94770B0B
:100C9E0060E971E080E00E94260B2FEF34E38CE0D8
:100CAE00215030408040E1F700C000005FC00E943C
:100CBE00910B8F2D0E94BF0A9FE72AE136E09150DB
:100CCE0020403040E1F700C000009091720091305A
:100CDE0009F459C00F2EF0EDDF2EF02DD80E99E04D
:100CEE009D15D0F40E94CD0B68E871E080E00E9463
:100CFE00260B61E082E00E94770B60E971E080E0F4
:100D0E000E94260B2FEF34E38CE0215030408040C0
:100D1E00E1F700C000002AC00E94910B110F012FB5
:100D2E00000F000F100F012F0D0D80E40E94C80B55
:100D3E009FEF21EE34E0915020403040E1F700C0AB
:100D4E000000802F0E94C80B0E94CD0B60EB72E05A
:100D5E0080E00E94260B8FEF94E32CE081509040B0
:100D6E002040E1F700C0000001C000E001110DC0FD
:100D7E0080917200882309F451CF08E007C002E089
:100D8E0005C008E003C008E001C008E080917200D1
:080D9E00813009F01ACEDCCB14
:100DA600EF92FF920F931F93CF93DF93D82FF62ED8
:100DB600E12C00E010E00E94CD0BD53021F128F4A3
:100DC600D33049F0D43099F04DC0D730A1F138F185
:100DD600D930E9F147C060EC72E080E00E94260B52
:100DE6000F2EF1E3EF2EF02D01E211E13BC067EC8F
:100DF60072E080E00E94260B0F2EF2E3EF2EF02D1C
:100E060002E212E12FC06EEC72E080E00E94260B37
:100E16000F2EF3E3EF2EF02D03E213E123C065ED71
:100E260072E080E00E94260B0F2EF4E3EF2EF02DE9
:100E360004E214E117C06CED72E080E00E94260B1C
:100E46000F2EF5E3EF2EF02D05E215E10BC060EE57
:100E560072E080E00E94260B0F2EF6E3EF2EF02DB7
:100E660006E216E1812F0E94C80B2FEF80E792E081
:100E7600215080409040E1F700C000008FEF0E94B3
:100E8600C80B813031F46AEE72E080E00E94260BD6
:100E960005C06DEE72E080E00E94260B61E082E004
:100EA6000E94770B61EF72E080E00E94260B8F2D87
:100EB6000E94BF0AC82F2FEF80E792E021508040A2
:100EC6009040E1F700C00000C13321F4802F0E945A
:100ED600C80B1AC0C23321F48E2D0E94C80B14C051
:100EE600CF3F91F0C03381F00E94CD0B62E073E0FA
:100EF60080E00E94260B2FEF84E39CE02150804087
:100F06009040E1F700C00000C053C33028F0809144
:100F16007200882309F44FCFDF91CF911F910F9173
:060F2600FF90EF9008951A
:100F2C00823461F118F4813441F00895833409F46A
:100F3C0046C0843409F464C00895413099F480B7F4
:100F4C008B7F80BF2AB381E090E002C0880F991F8D
:100F5C006A95E2F7982F909592239ABB9BB3892BB5
:100F6C008BBB08952BB381E090E002C0880F991FD2
:100F7C006A95E2F7809582238BBB0895413099F4F2
:100F8C0080B78B7F80BF27B381E090E002C0880FD1
:100F9C00991F6A95E2F7982F9095922397BB98B377
:100FAC00892B88BB089528B381E090E002C0880F9C
:100FBC00991F6A95E2F78095822388BB089541308A
:100FCC0099F480B78B7F80BF24B381E090E002C09E
:100FDC00880F991F6A95E2F7982F9095922394BBEE
:100FEC0095B3892B85BB089525B381E090E002C0B1
:100FFC00880F991F6A95E2F78095822385BB089527
:10100C00413099F480B78B7F80BF21B381E090E0B1
:10101C0002C0880F991F6A95E2F7982F909592233A
:10102C0091BB92B3892B82BB089522B381E090E0EF
:10103C0002C0880F991F6A95E2F78095822382BBC4
:02104C00089505
:10104E00823419F118F4813439F008958334B1F1F2
:10105E00843409F44CC00895413059F42AB381E028
:10106E0090E002C0880F991F6A95E2F7822B8ABB27
:10107E0008952AB381E090E002C0880F991F6A9507
:10108E00E2F7809582238ABB0895413059F427B345
:10109E0081E090E002C0880F991F6A95E2F7822BDB
:1010AE0087BB089527B381E090E002C0880F991F97
:1010BE006A95E2F78095822387BB0895413059F4F3
:1010CE0024B381E090E002C0880F991F6A95E2F781
:1010DE00822B84BB089524B381E090E002C0880F78
:1010EE00991F6A95E2F78095822384BB089541305B
:1010FE0059F421B381E090E002C0880F991F6A95E0
:10110E00E2F7822B81BB089521B381E090E002C00B
:10111E00880F991F6A95E2F78095822381BB089507
:10112E00823419F118F4813439F008958334B1F111
:10113E00843409F44CC00895413059F42BB381E046
:10114E0090E002C0880F991F6A95E2F7822B8BBB45
:10115E0008952BB381E090E002C0880F991F6A9525
:10116E00E2F7809582238BBB0895413059F428B362
:10117E0081E090E002C0880F991F6A95E2F7822BFA
:10118E0088BB089528B381E090E002C0880F991FB4
:10119E006A95E2F78095822388BB0895413059F411
:1011AE0025B381E090E002C0880F991F6A95E2F79F
:1011BE00822B85BB089525B381E090E002C0880F95
:1011CE00991F6A95E2F78095822385BB0895413079
:1011DE0059F422B381E090E002C0880F991F6A95FE
:1011EE00E2F7822B82BB089522B381E090E002C029
:1011FE00880F991F6A95E2F78095822382BB089526
:10120E00FF920F931F93CF93DF93CDB7DEB7609707
:10121E000FB6F894DEBF0FBECDBF80E1E0E6F0E082
:10122E00DE01119601900D928A95E1F7FF24FA9452
:10123E0000E03CC041E060E084E40E94970841E099
:10124E0061E084E40E94970841E062E084E40E9439
:10125E00970841E063E084E40E9497088FE39CE9DD
:10126E000197F1F700C0000040E0602F84E40E9477
:10127E00970810E018C064E0610F84E40E946C09C6
:10128E00811110C0E02FF0E0EE0FFF1FEE0FFF1FD9
:10129E0081E090E08C0F9D1FE80FF91FE10FF11D0B
:1012AE00F08003C01F5F143030F30F5F043010F274
:1012BE008F2D60960FB6F894DEBF0FBECDBFDF91B7
:0A12CE00CF911F910F91FF9008953A
:1012D8008234E9F018F4813431F055C0833459F17F
:1012E8008434E9F150C049B381E090E09C01062EB6
:1012F80002C0220F331F0A94E2F7842F90E0822362
:10130800932302C0959587956A95E2F7089546B3A9
:1013180081E090E09C01062E02C0220F331F0A9440
:10132800E2F7842F90E08223932302C09595879556
:101338006A95E2F7089543B381E090E09C01062E98
:1013480002C0220F331F0A94E2F7842F90E0822311
:10135800932302C0959587956A95E2F7089540B35F
:1013680081E090E09C01062E02C0220F331F0A94F0
:10137800E2F7842F90E08223932302C09595879506
:0A1388006A95E2F7089580E00895E9
:1013920041E060E081E40E94270841E061E081E4ED
:1013A2000E94270841E062E081E40E94270841E0B0
:1013B20063E081E40E94270841E064E081E40E9446
:1013C200270841E065E081E40E94270841E066E0E9
:1013D20081E40E94270841E067E081E40E94270837
:1013E20041E060E082E40E94270841E062E082E49A
:1013F2000E94270841E061E082E40E94270840E061
:1014020062E082E40E94970888E30E94850B81E0F3
:101412000E94850B8EE00E94850B8FE19EE401976E
:08142200F1F700C0000008957D
:10142A0041E060E084E40E94270841E061E084E44E
:10143A000E94270841E062E084E40E94270841E014
:10144A0063E084E40E94270840E064E084E40E94A8
:10145A00270840E065E084E40E94270840E066E04F
:10146A0084E40E94270840E067E084E40E94270899
:10147A0041E064E084E40E94960741E065E084E488
:10148A000E94960741E066E084E40E94960741E0E4
:0A149A0067E084E40E9496070895BD
:1014A4006F927F928F92CF92DF92EF92DC013A019A
:1014B400862E60E070E021C0E199FECFCB018A0F57
:1014C4009B1F9FBB8EBB9CB391609CBB9DB3E82CC0
:1014D4006301C60ED71EE11C77FDEA94F6018491E0
:1014E400E7FC8081981739F08DBB9CB394609CBB5A
:1014F4009CB392609CBB6F5F7F4F62177307E0F2EF
:0E150400EF90DF90CF908F907F906F900895C2
:101512002F923F924F926F927F928F92CF92DF9251
:10152200EF920F931B01482E3901842E30E016C032
:10153200832F90E0A0E0E42C6101C80ED91EEA1EC0
:10154200F6014491E7FC4081860D971DA81DFC0120
:101552008491A7FD8081481305C03F5F301740F397
:1015620081E001C080E00F91EF90DF90CF908F90EB
:0C1572007F906F904F903F902F90089555
:10157E00CF93C82F8FEF18C020917000309171005B
:10158E002838334110F0C13049F02091700030916D
:10159E007100203A3F4030F0C23021F491E0909338
:1015AE00720004C00E9407098F3F31F3CF91089556
:1015BE00DC01E199FECF20E030E00FC0F901EA0F27
:1015CE00FB1FFFBBEEBB9CB391609CBBFB01E20F0C
:1015DE00F31F9DB390832F5F3F4F2417350770F392
:0215EE0008955E
:1015F00041E060E082E40E9497088FE99FE0019754
:10160000F1F700C0000040E060E082E40E9497082B
:0E1610008FE99FE00197F1F700C000000895F8
:10161E001F920F920FB60F9211248F939F9380916A
:10162E0070009091710001969093710080937000FC
:0E163E009F918F910F900FBE0F901F901895E7
:10164C00CF92DF92EF926B01E82E06C00E94910BB5
:10165C008FEFC81AD80AE80AF6018491E7FC80815A
:0C166C008111F4CFEF90DF90CF90089533
:101678008EE48CBF83B7886083BF83B78F7B83BFBB
:1016880083B7816083BF83B78D7F83BF83B784604F
:0C16980083BF789489B7826089BF0895F1
:1016A400823459F018F4813431F00895833439F0D8
:1016B400843439F008956BBB089568BB089565BB05
:0616C400089562BB0895C9
:1016CA00E199FECF9FBB8EBB8CB381608CBB8DB37F
:1016DA00861739F06DBB8CB384608CBB8CB3826087
:0416EA008CBB089518
:1016EE00813019F48FE7860F06C0823019F48FEB24
:0C16FE00860F01C080E80E94850B089553
:10170A00682F81E40E94520B40E061E082E40E946B
:08171A0097080E94F80A0895E7
:10172200682F81E40E94520B41E061E082E40E9452
:0817320097080E94F80A0895CF
:10173A00EC010E94E20B0E94E10BCE010E94E30B36
:06174A00CE010E94DF0B3E
:1017500083B78E7F83BF83B78D7F83BF83B78B7F34
:0417600083BF0895A6
:10176400E199FECF9FBB8EBB8CB381608CBB8DB3E4
:021774000895D6
:0E17760087B3806B87BB8DB181658DB90895F7
:0C178400EE0FFF1F0590F491E02D09947A
:0A1790008FB9779BFECF8FB108954B
:08179A0081E00E94850B089517
:0817A20041E00E9427080895B0
:0817AA0041E00E949708089538
:0817B20040E00E949708089531
:0417BA000C9400008B
:0417BE000E94620023
:0217C200089588
:0217C400089586
:0217C600089584
:1017C8003738392F3435362A3132332D41303D2BD5
:00000001FF
