:100000000C9463000C94D1040C94D1040C94D1048E
:100010000C94D1040C94D1040C94D1040C94D1040C
:100020000C94D1040C94D1040C947A010C94D10456
:100030000C94D1040C94D1040C94D1040C94D104EC
:100040000C94D1040C94D1040C94D1040C94D104DC
:100050000C94D104B900CD00E100F5001D010901A7
:10006000AC00AC00AC00AC00AC00AC00AC00AC0030
:10007000AC00AC00310136013B0140014C014501AF
:10008000AC00AC00AC00AC00AC00AC00AC00AC0010
:10009000AC00AC00510156015B0160016C016501CF
:1000A000AC00AC00AC00AC00AC00AC00AC00AC00F0
:1000B000AC0071010060006280006200640009B061
:1000C00000640066800011241FBECFE5D8E0DEBFCB
:1000D000CDBFE4EBF0E040E017C0B591A5913591BC
:1000E0002591059107FD0CC095918591EF01F92FA0
:1000F000E82F05900D92A217B307D9F7FE0104C0AF
:100100001D92A217B307E1F7E53CF40731F70E940F
:0A0110008D000C947904F894FFCFE1
:10011A000E945A040E9433040E948E0462E084E41E
:10012A000E94BB0463E084E40E94BB0464E084E4AC
:10013A000E94BB0465E084E40E94BB0466E084E498
:10014A000E94BB0467E084E40E94BB04CFEF8FEFF8
:10015A000E94B60490E0FC017197E033F105B8F70C
:10016A00E65DFF4F0C94B00464E084E40E94CB0483
:10017A00882339F064E084E40E94CB04813021F4BE
:10018A0002C0C0E001C0C1E08C2F0E94B604DFCFDC
:10019A0065E084E40E94CB04882339F065E084E4B6
:1001AA000E94CB04813021F402C0C0E001C0C1E04A
:1001BA008C2F0E94B604CBCF66E084E40E94CB0465
:1001CA00882339F066E084E40E94CB04813021F46C
:1001DA0002C0C0E001C0C1E08C2F0E94B604B7CFB4
:1001EA0067E084E40E94CB04882339F067E084E462
:1001FA000E94CB04813021F402C0C0E001C0C1E0FA
:10020A008C2F0E94B604A3CF62E084E40E94CB0440
:10021A00882339F062E084E40E94CB04813021F41F
:10022A0002C0C0E001C0C1E08C2F0E94B6048FCF8B
:10023A0063E084E40E94CB04882339F063E084E419
:10024A000E94CB04813021F402C0C0E001C0C1E0A9
:10025A008C2F0E94B6047BCF64E084E40E94BF0422
:10026A0076CF65E084E40E94BF0471CF66E084E43F
:10027A000E94BF046CCF67E084E40E94BF0467CF8A
:10028A000E94330462E084E40E94BF0460CF63E00A
:10029A0084E40E94BF045BCF64E084E40E94C30448
:1002AA0056CF65E084E40E94C30451CF66E084E43B
:1002BA000E94C3044CCF67E084E40E94C30447CF82
:1002CA000E94840462E084E40E94C30440CF63E095
:1002DA0084E40E94C3043BCF8FEF0E94B60490E0EF
:0A02EA00909363008093620032CF0E
:1002F4001F920F920FB60F9211242F933F934F9397
:100304005F936F937F938F939F93AF93BF93EF9379
:10031400FF93809165008F5F8093650080916500F5
:100324008A3008F458C0109265000E946A04BC0127
:1003340080E090E00E94A50320E030E040E85EE326
:100344000E94C7040E94E2037093610060936000FE
:100354008091620090916300019620916000309139
:1003640061002817390740F062E084E40E94BF046A
:1003740081E0809364002FC08091620090916300BB
:10038400019720916000309161008217930738F043
:1003940062E084E40E94C304109264001CC02091B3
:1003A4006200309163008091600090916100281791
:1003B400390789F480916400813029F462E084E48F
:1003C4000E94BF0408C080916400811104C062E0EF
:1003D40084E40E94C304FF91EF91BF91AF919F9178
:1003E4008F917F916F915F914F913F912F910F90DA
:0803F4000FBE0F901F90189539
:1003FC00823419F118F4813439F008958334B1F151
:10040C00843409F44CC00895413059F42AB381E086
:10041C0090E002C0880F991F6A95E2F7822B8ABB85
:10042C0008952AB381E090E002C0880F991F6A9565
:10043C00E2F7809582238ABB0895413059F427B3A3
:10044C0081E090E002C0880F991F6A95E2F7822B39
:10045C0087BB089527B381E090E002C0880F991FF5
:10046C006A95E2F78095822387BB0895413059F451
:10047C0024B381E090E002C0880F991F6A95E2F7DF
:10048C00822B84BB089524B381E090E002C0880FD6
:10049C00991F6A95E2F78095822384BB08954130B9
:1004AC0059F421B381E090E002C0880F991F6A953E
:1004BC00E2F7822B81BB089521B381E090E002C06A
:1004CC00880F991F6A95E2F78095822381BB089566
:1004DC00823419F118F4813439F008958334B1F170
:1004EC00843409F44CC00895413059F42BB381E0A5
:1004FC0090E002C0880F991F6A95E2F7822B8BBBA4
:10050C0008952BB381E090E002C0880F991F6A9583
:10051C00E2F7809582238BBB0895413059F428B3C0
:10052C0081E090E002C0880F991F6A95E2F7822B58
:10053C0088BB089528B381E090E002C0880F991F12
:10054C006A95E2F78095822388BB0895413059F46F
:10055C0025B381E090E002C0880F991F6A95E2F7FD
:10056C00822B85BB089525B381E090E002C0880FF3
:10057C00991F6A95E2F78095822385BB08954130D7
:10058C0059F422B381E090E002C0880F991F6A955C
:10059C00E2F7822B82BB089522B381E090E002C087
:1005AC00880F991F6A95E2F78095822382BB089584
:1005BC000FC00E94950438F00E949C0420F09523F3
:1005CC0011F00C94AA040C94CE0411240C94A404E1
:1005DC000E94110470F3959FC1F3950F50E0551FC5
:1005EC00629FF001729FBB27F00DB11D639FAA277C
:1005FC00F00DB11DAA1F649F6627B00DA11D661FCB
:10060C00829F2227B00DA11D621F739FB00DA11DEB
:10061C00621F839FA00D611D221F749F3327A00DA5
:10062C00611D231F849F600D211D822F762F6A2F41
:10063C0011249F5750409AF0F1F088234AF0EE0FA6
:10064C00FF1FBB1F661F771F881F91505040A9F7D3
:10065C009E3F510580F00C94AA040C94A4045F3FB7
:10066C00E4F3983ED4F3869577956795B795F7950F
:10067C00E7959F5FC1F7FE2B880F911D9695879587
:04068C0097F908953D
:100690008234E9F018F4813431F055C0833459F1D3
:1006A0008434E9F150C049B381E090E09C01062E0A
:1006B00002C0220F331F0A94E2F7842F90E08223B6
:1006C000932302C0959587956A95E2F7089546B3FE
:1006D00081E090E09C01062E02C0220F331F0A9495
:1006E000E2F7842F90E08223932302C095958795AB
:1006F0006A95E2F7089543B381E090E09C01062EED
:1007000002C0220F331F0A94E2F7842F90E0822365
:10071000932302C0959587956A95E2F7089540B3B3
:1007200081E090E09C01062E02C0220F331F0A9444
:10073000E2F7842F90E08223932302C0959587955A
:0A0740006A95E2F7089580E008953D
:10074A00E89409C097FB3EF4909580957095619561
:10075A007F4F8F4F9F4F9923A9F0F92F96E9BB2717
:10076A009395F695879577956795B795F111F8CF93
:10077A00FAF4BB0F11F460FF1BC06F5F7F4F8F4FFE
:10078A009F4F16C0882311F096E911C0772321F0F4
:10079A009EE8872F762F05C0662371F096E8862F8C
:1007AA0070E060E02AF09A95660F771F881FDAF7E3
:0A07BA00880F9695879597F908952A
:1007C4000E94190488F09F5798F0B92F9927B751C0
:1007D400B0F0E1F0660F771F881F991F1AF0BA95E1
:1007E400C9F714C0B13091F00E94A304B1E0089598
:1007F4000C94A304672F782F8827B85F39F0B93F8A
:10080400CCF3869577956795B395D9F73EF4909593
:0E0814008095709561957F4F8F4F9F4F08958F
:1008220057FD9058440F551F59F05F3F71F047959F
:10083200880F97FB991F61F09F3F79F08795089584
:10084200121613061406551FF2CF4695F1DF08C0A3
:10085200161617061806991FF1CF869571056105C0
:040862000894089559
:100866008EE48CBF83B7886083BF83B78F7B83BFDB
:1008760083B7816083BF83B78D7F83BF83B784606F
:0C08860083BF789489B7826089BF089511
:10089200092E0394000C11F4882352F0BB0F40F48C
:1008A200BF2B11F460FF04C06F5F7F4F8F4F9F4FCC
:0208B2000895A7
:1008B40087B1806487B987B1806887B986B1806859
:1008C40086B986B1846086B986B1826086B9089596
:1008D40086B1806486B9349BFECF86B1806186B9C7
:0E08E40024B185B190E0982F8827822B0895CB
:1008F200EC010E94D6040E94D504CE010E94D704C6
:06090200CE010E94D304A7
:1009080083B78E7F83BF83B78D7F83BF83B78B7F8A
:0409180083BF0895FC
:0E091C0087B3806487BB8DB180648DB9089568
:0E092A0000240A9416161706180609060895EA
:0E09380000240A9412161306140605060895EC
:0E094600E894BB2766277727CB0197F9089521
:0C09540097F99F6780E870E060E008956C
:0C096000EE0FFF1F0590F491E02D0994AC
:0A096C008FB9779BFECF8FB108957D
:0809760041E00E94FE0108951A
:08097E0041E00E946E020895A1
:0809860040E00E946E0208959A
:08098E000E94DE020C944904F2
:060996000E9448030895D1
:06099C009FEF80EC0895BE
:0409A2000C940000B1
:0409A6000E948B0020
:0209AA000895AE
:0209AC000895AC
:0209AE000895AA
:0209B00018002D
:00000001FF
